:100000000C942A000C9447000C9447000C94470071
:100010000C9447000C9447000C9447000C94470044
:100020000C9447000C9447000C9447000C94470034
:100030000C9447000C9447000C9447000C94470024
:100040000C9447000C9447000C9447000C94470014
:100050000C94470011241FBECFE5D8E0DEBFCDBF12
:1000600010E0A0E6B0E0E0E1F2E002C005900D9201
:10007000A03AB107D9F710E0A0EAB0E001C01D92A4
:10008000A03AB107E1F70E9449000C9406010C94D4
:100090000000CF93DF93CDB7DEB72A970FB6F89461
:1000A000DEBF0FBECDBF0E94760080E00E94BB0085
:1000B00080E060E670E070E00E948B0000E0CE011E
:1000C00001960E94B5008823D1F389818823B9F372
:1000D000102F0E94CE001F5FE1E0F0E0EC0FFD1F4B
:1000E000E10FF11D8081882351F3F3CF60E076E9C1
:1000F00080E090E00E94D30085E690E00E94DF005F
:1001000060E072EC81E090E00E94D3008BE790E029
:100110000E94DF000895CF93DF93EB01882329F439
:100120008BE790E00E94DF001DC087E890E00E940E
:10013000DF0083E990E0BE010E94FB00E82FF92F69
:10014000DF010D900020E9F71197AE1BBF0BA80F40
:10015000B91FECE9F0E023E001900D922150E1F7A6
:100160000E94DF00DF91CF910895FC01808190E033
:100170000E94F2000895882319F0813069F407C0C5
:10018000BA9AB99AB89AC09ABB986C9A05C0BB9AA9
:10019000BA98B998B8986C986E9A08958FB9779B69
:1001A000FECF8FB1089510BC83E389B988E18AB985
:1001B00086E080BD08955D9BFECF8CB90895CF93F6
:1001C000DF93EC018881882331F021960E94DB00C7
:1001D00089918823D9F7DF91CF9108955F9BFECF56
:1001E0008CB108955F9B05C02CB1FC01208381E098
:1001F000089580E00895FB01DC010D900020E9F7EF
:10020000119701900D920020E1F70895F894FFCF27
:100210004E6F6E650041542B554152543D3131357E
:100220003230303F312C302C0D0A0041542B524FCC
:100230004C453D300D0A0041542B524F4C453D3149
:100240000D0A0041542B465341443D000D0A000065
:00000001FF
