S0190000414D49545F477261645F50726F6A6563742E73726563CD
S11300000C942A000C9447000C9447000C9447006D
S11300100C9447000C9447000C9447000C94470040
S11300200C9447000C9447000C9447000C94470030
S11300300C9447000C9447000C9447000C94470020
S11300400C9447000C9447000C9447000C94470010
S11300500C94470011241FBECFE5D8E0DEBFCDBF0E
S113006010E0A0E6B0E0E6EEF1E002C005900D92EB
S1130070A637B107D9F710E0A6E7B0E001C01D929A
S1130080A637B107E1F70E9449000C94F1000C94E3
S11300900000CF93DF93CDB7DEB72A970FB6F8945D
S11300A0DEBF0FBECDBF81E00E94D0000E94CC0015
S11300B00E94C60010E00F2EF0E6EF2EF0E0FF2EB7
S11300C0F02D0F2EF6E6CF2EF0E0DF2EF02D0F2EC2
S11300D0FCE6AF2EF0E0BF2EF02D0F2EF1E78F2EB1
S11300E0F0E09F2EF02D00E005C00E94E3001F5FAA
S11300F001C0102FE1E0F0E0EC0FFD1FE10FF11D56
S11301008081882391F7C701BE016F5F7F4F0E94F2
S1130110E800282F392F2115310521F40E94C00051
S1130120102FE8CFC601BE016F5F7F4F0E94E80029
S1130130282F392F2115310521F40E94CA00102FD0
S1130140D9CFC501BE016F5F7F4F0E94E800282F01
S1130150392F2115310521F40E94C200102FCACF76
S1130160C401BE016F5F7F4F0E94E800282F392F22
S11301702115310509F0BDCF0E94C200102FBACF5E
S1130180959A0895969A0895969808958E9A0E943D
S1130190C4000895959808958D9A0E94CA00089500
S11301A0882319F0813069F407C0BA9AB99AB89AC9
S11301B0C09ABB986C9A05C0BB9ABA98B998B8987B
S11301C06C986E9A08958FB9779BFECF8FB108957E
S11301D0FB01DC018D91019080190110D9F3990B79
S10901E00895F894FFCF1E
S11301E6626C75653100626C7565300072656431E8
S10901F600726564300094
S9030000FC
